:100000000C942A000C9447000C9447000C94470071
:100010000C9447000C9447000C9447000C94440146
:100020000C9447000C9447000C9447000C94470034
:100030000C9447000C9447000C9447000C94470024
:100040000C9447000C9447000C9447000C94470014
:100050000C94470011241FBECFE5D8E0DEBFCDBF12
:1000600012E0A0E6B0E0E2E0F6E002C005900D92FA
:10007000A034B107D9F722E0A0E4B2E001C01D929C
:10008000AB34B207E1F70E94D8020C94FF020C9443
:10009000000084EA86BF06B607FEFDCF089583B947
:1000A00084E886BF06B607FEFDCF0895CF93DF93A1
:1000B000C82FD62F0E9449008D2F0E944F008C2FF1
:1000C0000E944F0084E986BFDF91CF910895CF93BE
:1000D000C82F90914A02892F846080934A026EE46F
:1000E0000E94560085E88A95F1F70000C295C07F0E
:1000F00080914A026EE48C2B0E94560080914A0245
:100100008B7F80934A026EE40E94560085E88A95B0
:10011000F1F70000CF9108951F93CF93DF93182F2D
:10012000C82FD0E0D595C795D595C795D595C795D6
:10013000D595C795611109C080914A028E7F809341
:100140004A026EE40E94560008C080914A02816013
:1001500080934A026EE40E9456008C2F0E94670032
:10016000812F0E946700DF91CF911F910895CF9357
:10017000C82F80914A02816080934A026EE40E94F7
:1001800056008C2F82958F700E9467008C2F0E94E2
:100190006700CF9108958FE295E70197F1F700C0CE
:1001A000000083E00E9467008FE39FE10197F1F771
:1001B00000C0000083E00E94670087EC90E0019798
:1001C000F1F700C0000083E00E9467008FEC97E029
:1001D0000197F1F700C0000082E00E9467008FECF9
:1001E00097E00197F1F700C0000060E088E20E940C
:1001F0008C008FEC97E00197F1F700C0000060E001
:100200008CE00E948C008FEC97E00197F1F700C022
:10021000000060E086E00E948C008FEC97E0019780
:10022000F1F700C0000080914A02886080934A0282
:100230006EE40E94560080914A028D7F80934A02AC
:100240006EE40E945600089560E081E00E948C00F8
:1002500087EB9BE00197F1F700C0000008951F9322
:10026000CF93DF93EC018881882351F010E00E9446
:10027000B7001F5FFE01E10FF11D80818111F7CFF3
:10028000DF91CF911F9108951F920F920FB60F9299
:1002900011242F933F934F935F936F937F938F938B
:1002A0009F93AF93BF93EF93FF9389B3837090E0D5
:1002B0009093490280934802209146023091470270
:1002C0008217930709F483C02130310509F445C032
:1002D0001CF4232B29F177C02230310529F023307B
:1002E000310509F455C06FC08330910559F4209150
:1002F0004202309143022F5F3F4F309343022093DD
:10030000420261C0009709F05EC020914002309126
:1003100041022F5F3F4F309341022093400253C070
:100320008230910559F420914202309143022F5FAF
:100330003F4F309343022093420245C081309105E4
:1003400009F041C020914002309141022F5F3F4FA0
:10035000309341022093400236C0009759F4209117
:100360004202309143022F5F3F4F3093430220936C
:10037000420229C08330910531F52091400230912D
:1003800041022F5F3F4F30934102209340021BC038
:100390008130910559F420914202309143022F5F40
:1003A0003F4F30934302209342020DC082309105AB
:1003B00051F420914002309141022F5F3F4F309322
:1003C000410220934002909347028093460280911D
:1003D00042029091430204970CF450C00E94240101
:1003E00080914402909145029C012F5F3F4F3093D2
:1003F000450220934402880F991F82959295907F21
:100400009827807F9827805A9F4F0E942F018091C4
:100410004402909145020F9731F48DE090E0909363
:1004200045028093440260E080EC0E948C00809141
:100430004402909145029C012F5F3F4F309345024B
:1004400020934402880F991F82959295907F982758
:10045000807F9827805A9F4F0E942F0180914402ED
:10046000909145020F9731F48DE090E09093450212
:100470008093440210924302109242028091400203
:100480009091410204970CF480C0809144029091B5
:100490004502892B09F582E090E090934502809314
:1004A000440260E080E80E948C00809144029091B8
:1004B00045029C01215031093093450220934402AA
:1004C000880F991F82959295907F9827807F982713
:1004D000805A9F4F0E942F010E9424018091440264
:1004E000909145029C01215031093093450220939F
:1004F0004402880F991F82959295907F9827807F5C
:100500009827805A9F4F0E942F018091440290911A
:100510004502892BD9F460E080EC0E948C00809128
:100520004402909145029C012150310930934502CB
:1005300020934402880F991F82959295907F982767
:10054000807F9827805A9F4F0E942F0160E080ECA7
:100550000E948C0080914402909145029C012150A0
:1005600031093093450220934402880F991F8295E8
:100570009295907F9827807F9827805A9F4F0E945E
:100580002F0110924102109240021DBC1CBCFF9131
:10059000EF91BF91AF919F918F917F916F915F91FB
:1005A0004F913F912F910F900FBE0F901F90189574
:1005B000CFEFC0B90E94CB000E94240180E690E0FA
:1005C0000E942F0160E080EC0E948C0080E890E0A7
:1005D0000E942F0183E08BBB1ABA18BAC7BB1FBC9D
:1005E0009AE09EBD1DBC1CBC17BC16BC8BBD88EE22
:1005F0008ABD19BC18BC80E189BF7894FFCFF894FC
:02060000FFCF2A
:10060200556E6974203100000000000000000000F7
:1006120000000000000000000000000000000000D8
:10062200556E6974203200000000000000000000D6
:1006320000000000000000000000000000000000B8
:10064200556E6974203300000000000000000000B5
:100652000000000000000000000000000000000098
:10066200556E697420340000000000000000000094
:100672000000000000000000000000000000000078
:10068200556E697420350000000000000000000073
:100692000000000000000000000000000000000058
:1006A200556E697420360000000000000000000052
:1006B2000000000000000000000000000000000038
:1006C200556E697420370000000000000000000031
:1006D2000000000000000000000000000000000018
:1006E200556E697420380000000000000000000010
:1006F20000000000000000000000000000000000F8
:10070200556E6974203900000000000000000000EE
:1007120000000000000000000000000000000000D7
:10072200556E6974203130000000000000000000A6
:1007320000000000000000000000000000000000B7
:10074200556E697420313100000000000000000085
:100752000000000000000000000000000000000097
:10076200556E697420313200000000000000000064
:100772000000000000000000000000000000000077
:10078200556E697420313300000000000000000043
:100792000000000000000000000000000000000057
:1007A200556E697420313400000000000000000022
:1007B2000000000000000000000000000000000037
:1007C200556E697420313500000000000000000001
:1007D2000000000000000000000000000000000017
:00000001FF
